{
  "contractName": "ChainList",
  "abi": [
    {
      "anonymous": false,
      "inputs": [
        {
          "indexed": true,
          "internalType": "uint256",
          "name": "_id",
          "type": "uint256"
        },
        {
          "indexed": true,
          "internalType": "address",
          "name": "_seller",
          "type": "address"
        },
        {
          "indexed": true,
          "internalType": "address",
          "name": "_buyer",
          "type": "address"
        },
        {
          "indexed": false,
          "internalType": "string",
          "name": "_name",
          "type": "string"
        },
        {
          "indexed": false,
          "internalType": "uint256",
          "name": "_price",
          "type": "uint256"
        }
      ],
      "name": "LogBuyArticle",
      "type": "event"
    },
    {
      "anonymous": false,
      "inputs": [
        {
          "indexed": true,
          "internalType": "uint256",
          "name": "_id",
          "type": "uint256"
        },
        {
          "indexed": true,
          "internalType": "address",
          "name": "_seller",
          "type": "address"
        },
        {
          "indexed": false,
          "internalType": "string",
          "name": "_name",
          "type": "string"
        },
        {
          "indexed": false,
          "internalType": "uint256",
          "name": "_price",
          "type": "uint256"
        }
      ],
      "name": "LogSellArticle",
      "type": "event"
    },
    {
      "inputs": [
        {
          "internalType": "uint256",
          "name": "",
          "type": "uint256"
        }
      ],
      "name": "articles",
      "outputs": [
        {
          "internalType": "uint256",
          "name": "id",
          "type": "uint256"
        },
        {
          "internalType": "address",
          "name": "seller",
          "type": "address"
        },
        {
          "internalType": "address",
          "name": "buyer",
          "type": "address"
        },
        {
          "internalType": "string",
          "name": "name",
          "type": "string"
        },
        {
          "internalType": "string",
          "name": "desciption",
          "type": "string"
        },
        {
          "internalType": "uint256",
          "name": "price",
          "type": "uint256"
        }
      ],
      "stateMutability": "view",
      "type": "function",
      "constant": true
    },
    {
      "inputs": [],
      "name": "kill",
      "outputs": [],
      "stateMutability": "nonpayable",
      "type": "function"
    },
    {
      "inputs": [
        {
          "internalType": "string",
          "name": "_name",
          "type": "string"
        },
        {
          "internalType": "string",
          "name": "_desciption",
          "type": "string"
        },
        {
          "internalType": "uint256",
          "name": "_price",
          "type": "uint256"
        }
      ],
      "name": "sellArticle",
      "outputs": [],
      "stateMutability": "nonpayable",
      "type": "function"
    },
    {
      "inputs": [
        {
          "internalType": "uint256",
          "name": "_id",
          "type": "uint256"
        }
      ],
      "name": "buyArticle",
      "outputs": [],
      "stateMutability": "payable",
      "type": "function",
      "payable": true
    },
    {
      "inputs": [],
      "name": "getNumberOfArticles",
      "outputs": [
        {
          "internalType": "uint256",
          "name": "",
          "type": "uint256"
        }
      ],
      "stateMutability": "view",
      "type": "function",
      "constant": true
    },
    {
      "inputs": [],
      "name": "getArticlesForSale",
      "outputs": [
        {
          "internalType": "uint256[]",
          "name": "",
          "type": "uint256[]"
        }
      ],
      "stateMutability": "view",
      "type": "function",
      "constant": true
    }
  ],
  "bytecode": "0x608060405234801561001057600080fd5b50600080546001600160a01b03191633179055610abb806100326000396000f3fe6080604052600436106100555760003560e01c80631cc4baa81461005a57806341c0e1b51461006f5780637f6be3da1461008457806389da85d3146100af578063d2609515146100cd578063edcfafe6146100ed575b600080fd5b61006d61006836600461063e565b61011f565b005b34801561007b57600080fd5b5061006d610249565b34801561009057600080fd5b5061009961026e565b6040516100a69190610657565b60405180910390f35b3480156100bb57600080fd5b506002546040519081526020016100a6565b3480156100d957600080fd5b5061006d6100e836600461073e565b6103d8565b3480156100f957600080fd5b5061010d61010836600461063e565b6104eb565b6040516100a6969594939291906107f1565b60006002541161012e57600080fd5b60008111801561014057506002548111155b61014957600080fd5b600081815260016020526040902060028101546001600160a01b03161561016f57600080fd5b60018101546001600160a01b0316330361018857600080fd5b8060050154341461019857600080fd5b6002810180546001600160a01b0319163317905560018101546040516001600160a01b0391909116903480156108fc02916000818181858888f193505050501580156101e8573d6000803e3d6000fd5b506002810154600182015460058301546040516001600160a01b03938416939092169185917f5d28bc06e6f0c45405abfe77bd77236c767f9bd9d044ae2d954a415a2b4823e09161023d916003880191610883565b60405180910390a45050565b6000546001600160a01b0316331461026057600080fd5b6000546001600160a01b0316ff5b6060600060025467ffffffffffffffff81111561028d5761028d61069b565b6040519080825280602002602001820160405280156102b6578160200160208202803683370190505b509050600060015b6002548111610334576000818152600160205260409020600201546001600160a01b031661032257600081815260016020526040902054835184908490811061030957610309610917565b60209081029190910101528161031e8161092d565b9250505b8061032c8161092d565b9150506102be565b5060008167ffffffffffffffff8111156103505761035061069b565b604051908082528060200260200182016040528015610379578160200160208202803683370190505b50905060005b828110156103d05783818151811061039957610399610917565b60200260200101518282815181106103b3576103b3610917565b6020908102919091010152806103c88161092d565b91505061037f565b509392505050565b600280549060006103e88361092d565b90915550506040805160c081018252600280548083523360208085019182526000858701818152606087018b8152608088018b905260a088018a905294825260019283905296902085518155915190820180546001600160a01b03199081166001600160a01b0393841617909155955193820180549096169316929092179093559151909190600382019061047d90826109a3565b506080820151600482019061049290826109a3565b5060a08201518160050155905050336001600160a01b03166002547fe2ebb0c522a8b90a93f45a5dfd3c0e0516b81519fdf199efe51c474642fe8cec85846040516104de929190610a63565b60405180910390a3505050565b600160208190526000918252604090912080549181015460028201546003830180546001600160a01b0393841694929093169261052790610849565b80601f016020809104026020016040519081016040528092919081815260200182805461055390610849565b80156105a05780601f10610575576101008083540402835291602001916105a0565b820191906000526020600020905b81548152906001019060200180831161058357829003601f168201915b5050505050908060040180546105b590610849565b80601f01602080910402602001604051908101604052809291908181526020018280546105e190610849565b801561062e5780601f106106035761010080835404028352916020019161062e565b820191906000526020600020905b81548152906001019060200180831161061157829003601f168201915b5050505050908060050154905086565b60006020828403121561065057600080fd5b5035919050565b6020808252825182820181905260009190848201906040850190845b8181101561068f57835183529284019291840191600101610673565b50909695505050505050565b634e487b7160e01b600052604160045260246000fd5b600082601f8301126106c257600080fd5b813567ffffffffffffffff808211156106dd576106dd61069b565b604051601f8301601f19908116603f011681019082821181831017156107055761070561069b565b8160405283815286602085880101111561071e57600080fd5b836020870160208301376000602085830101528094505050505092915050565b60008060006060848603121561075357600080fd5b833567ffffffffffffffff8082111561076b57600080fd5b610777878388016106b1565b9450602086013591508082111561078d57600080fd5b5061079a868287016106b1565b925050604084013590509250925092565b6000815180845260005b818110156107d1576020818501810151868301820152016107b5565b506000602082860101526020601f19601f83011685010191505092915050565b8681526001600160a01b0386811660208301528516604082015260c060608201819052600090610823908301866107ab565b828103608084015261083581866107ab565b9150508260a0830152979650505050505050565b600181811c9082168061085d57607f821691505b60208210810361087d57634e487b7160e01b600052602260045260246000fd5b50919050565b60408152600080845461089581610849565b80604086015260606001808416600081146108b757600181146108d157610902565b60ff1985168884015283151560051b880183019550610902565b8960005260208060002060005b868110156108f95781548b82018701529084019082016108de565b8a018501975050505b50505050506020929092019290925292915050565b634e487b7160e01b600052603260045260246000fd5b60006001820161094d57634e487b7160e01b600052601160045260246000fd5b5060010190565b601f82111561099e57600081815260208120601f850160051c8101602086101561097b5750805b601f850160051c820191505b8181101561099a57828155600101610987565b5050505b505050565b815167ffffffffffffffff8111156109bd576109bd61069b565b6109d1816109cb8454610849565b84610954565b602080601f831160018114610a0657600084156109ee5750858301515b600019600386901b1c1916600185901b17855561099a565b600085815260208120601f198616915b82811015610a3557888601518255948401946001909101908401610a16565b5085821015610a535787850151600019600388901b60f8161c191681555b5050505050600190811b01905550565b604081526000610a7660408301856107ab565b9050826020830152939250505056fea26469706673582212202d4e72247b9abe28a8c9fdd7d173f3d5b9b8990c3d135cc3c7446e54cc366eb264736f6c63430008110033",
  "immutableReferences": {},
  "source": "// SPDX-License-Identifier: UNLICENSED\r\npragma solidity >=0.5.0;\r\nimport \"./Ownable.sol\";\r\n\r\ncontract ChainList is Ownable{\r\n    // state variable\r\n    struct Article {\r\n        uint256 id;\r\n        address seller;\r\n        address buyer;\r\n        string name;\r\n        string desciption;\r\n        uint256 price;\r\n    }\r\n\r\n    mapping(uint256 => Article) public articles;\r\n    uint256 articlesCounter;\r\n\r\n    event LogSellArticle(\r\n        uint256 indexed _id,\r\n        address indexed _seller,\r\n        string _name,\r\n        uint256 _price\r\n    );\r\n\r\n    event LogBuyArticle(\r\n        uint256 indexed _id,\r\n        address indexed _seller,\r\n        address indexed _buyer,\r\n        string _name,\r\n        uint256 _price\r\n    );\r\n\r\n    function kill() public onlyOwner {\r\n        selfdestruct(payable(owner));\r\n    }\r\n\r\n    //sell an article\r\n    function sellArticle(\r\n        string memory _name,\r\n        string memory _desciption,\r\n        uint256 _price\r\n    ) public {\r\n        articlesCounter++;\r\n\r\n        articles[articlesCounter] = Article(\r\n            articlesCounter,\r\n            msg.sender,\r\n            address(0x0),\r\n            _name,\r\n            _desciption,\r\n            _price\r\n        );\r\n\r\n        emit LogSellArticle(articlesCounter, msg.sender, _name, _price);\r\n    }\r\n\r\n    function buyArticle(uint256 _id) public payable {\r\n        require(articlesCounter > 0);\r\n\r\n        require(_id > 0 && _id <= articlesCounter);\r\n\r\n        Article storage article = articles[_id];\r\n\r\n        require(article.buyer == address(0x0));\r\n\r\n        require(msg.sender != article.seller);\r\n\r\n        require(msg.value == article.price);\r\n\r\n        article.buyer = msg.sender;\r\n\r\n        payable(article.seller).transfer(msg.value);\r\n\r\n        emit LogBuyArticle(\r\n            _id,\r\n            article.seller,\r\n            article.buyer,\r\n            article.name,\r\n            article.price\r\n        );\r\n    }\r\n\r\n    function getNumberOfArticles() public view returns (uint256) {\r\n        return articlesCounter;\r\n    }\r\n\r\n    function getArticlesForSale() public view returns (uint256[] memory) {\r\n        uint256[] memory articlesIds = new uint256[](articlesCounter);\r\n\r\n        uint256 numberOfArticlesForSale = 0;\r\n\r\n        for (uint256 i = 1; i <= articlesCounter; i++) {\r\n            if (articles[i].buyer == address(0x0)) {\r\n                articlesIds[numberOfArticlesForSale] = articles[i].id;\r\n                numberOfArticlesForSale++;\r\n            }\r\n        }\r\n\r\n        // copy to smaller array\r\n        uint256[] memory forSale = new uint256[](numberOfArticlesForSale);\r\n        for (uint256 i = 0; i < numberOfArticlesForSale; i++) {\r\n            forSale[i] = articlesIds[i];\r\n        }\r\n\r\n        return forSale;\r\n    }\r\n}\r\n",
  "sourcePath": "C:\\Users\\tuan.nguyenvan1\\ChainSkills\\Training\\chainlist\\contracts\\ChainList.sol",
  "compiler": {
    "name": "solc",
    "version": "0.8.17+commit.8df45f5f.Emscripten.clang"
  },
  "schemaVersion": "3.4.10",
  "updatedAt": "2022-11-22T02:08:22.047Z",
  "networkType": "ethereum",
  "devdoc": {
    "kind": "dev",
    "methods": {},
    "version": 1
  },
  "userdoc": {
    "kind": "user",
    "methods": {},
    "version": 1
  }
}